:020000040800F2
:1000000068A5032439040008B15A000817560008EF
:10001000AD5A0008FD07000809970008000000001D
:10002000000000000000000000000000790300084C
:100030004508000800000000D5030008B98A000840
:100040005304000853040008530400085304000834
:100050005304000853040008530400085304000824
:100060005304000853040008530400085304000814
:100070005304000801080008530400085304000852
:1000800053040008530400085304000853040008F4
:1000900053040008530400085304000853040008E4
:1000A000530400082D960008530400085304000868
:1000B00053040008530400085304000853040008C4
:1000C00053040008530400085304000853040008B4
:1000D00053040008530400085304000853040008A4
:1000E00053040008530400080000000053040008F3
:1000F0005304000853040008530400085304000884
:100100005304000865610008530400085304000804
:100110005304000853040008530400085304000863
:100120005304000853040008530400085304000853
:100130005304000853040008530400085304000843
:1001400000000000000000000000000000000000AF
:100150005304000853040008530400085304000823
:100160005304000853040008530400085304000813
:100170005304000853040008530400085304000803
:1001800053040008530400085304000853040008F3
:1001900053040008530400085304000853040008E3
:1001A00053040008530400085304000853040008D3
:1001B00053040008530400085304000853040008C3
:1001C00053040008530400085304000853040008B3
:1001D00053040008530400085304000853040008A3
:1001E0005304000853040008530400085304000893
:1001F0005304000853040008530400085304000883
:100200005304000853040008530400085304000872
:100210005304000853040008530400085304000862
:1002200053040008530400085304000800000000B1
:1002300053040008530400080000000053040008A1
:100240005304000853040008530400085304000832
:100250005304000853040008530400085304000822
:100260005304000853040008530400085304000812
:100270005304000853040008530400080000000061
:100280005304000853040008530400080000000051
:10029000000000005304000800F002F800F05CF8D1
:1002A0000AA090E8000C82448344AAF10107DA45D1
:1002B00001D100F051F8AFF2090EBAE80F0013F0C7
:1002C000010F18BFFB1A43F00103184734770100F0
:1002D000547701000A444FF0000C10F8013B13F072
:1002E000070408BF10F8014B1D1108BF10F8015B8F
:1002F000641E05D010F8016B641E01F8016BF9D182
:1003000013F0080F1EBF10F8014BAD1C0C1B09D1D8
:100310006D1E58BF01F801CBFAD505E014F8016B4A
:1003200001F8016B6D1EF9D59142D6D370470000DC
:100330000023002400250026103A28BF78C1FBD8EE
:10034000520728BF30C148BF0B6070471FB50EF081
:1003500028FD1FBD10B510BD00F0A6F91146FFF72E
:10036000F5FF0CF085F800F0C4F903B4FFF7F2FFD5
:1003700003BC00F0CBF900002C4B19680868B0E80A
:10038000F04F80F30988BFF36F8F4FF0000080F3C8
:10039000118870470000000008480068006880F37A
:1003A00008884FF0000080F3148862B661B6BFF38E
:1003B0004F8FBFF36F8F00DF00BF00BF08ED00E07D
:1003C000DFF80C00016841F470010160704700BF64
:1003D00088ED00E0EFF30980BFF36F8F134B1A68CD
:1003E0001EF0100F08BF20ED108A20E9F04F1060BA
:1003F00009B44FF0500080F31188BFF34F8FBFF363
:100400006F8F0DF09DFB4FF0000080F3118809BC49
:1004100019680868B0E8F04F1EF0100F08BFB0EC84
:10042000108A80F30988BFF36F8F7047DC0F0024B8
:10043000EFF30580704700000948804709480047EE
:10044000FEE7FEE7FEE7FEE7FEE7FEE7FEE7FEE784
:10045000FEE7FEE704480549054A064B70470000E1
:10046000D58B0008990200086815032468A50324A9
:10047000687503246875032453EA020C00F0698050
:100480002DE9F04B4FF00006002B1FBFB3FA83F5A8
:1004900003FA05F424FA05F65E4012BF1643B2FAD9
:1004A00082F502FA05F4C5F120051EBF22FA05FC0B
:1004B00044EA0C04203556EA044C4FEA144418BFB1
:1004C000641C4FF000084FF00009904271EB030CE0
:1004D00039D3002919BFB1FA81F701FA07F6B0FA4A
:1004E00080F700FA07F6C7F120071EBF20FA07FCC5
:1004F00046EA0C062037B6FBF4FCA7EB0507103FD5
:1005000007F01F0BCBF120060CFA0BFB2CFA06F6BA
:1005100044BFB3460026202FA4BF5E464FF0000B19
:100520005BEA060C08BF4FF0010B19EB0B09ABFBA4
:10053000027C48EB0608C01B06FB02CC0BFB03CC7D
:1005400071EB0C01C1E70B46024641464846BDE847
:10055000F08B13B54FF000004FF00001AFF30080B7
:10056000BDE81C407047032A40F2308010F0030CB5
:1005700000F0158011F8013BBCF1020F624498BFF6
:1005800011F801CB00F8013B38BF11F8013BA2F193
:10059000040298BF00F801CB38BF00F8013B11F00E
:1005A000030300F02580083AC0F0088051F8043BAE
:1005B000083A51F804CBA0E80810F5E7121D5CBF1B
:1005C00051F8043B40F8043BAFF30080D20724BF4E
:1005D00011F8013B11F801CB48BF11F8012B24BFE2
:1005E00000F8013B00F801CB48BF00F8012B704731
:1005F00010B5203AC0F00B80B1E81850203AA0E8BE
:100600001850B1E81850A0E81850BFF4F5AF5FEAF1
:10061000027C24BFB1E81850A0E8185044BF18C9A4
:1006200018C0BDE810405FEA827C24BF51F8043B4B
:1006300040F8043B08BF7047D20728BF31F8023B9F
:1006400048BF11F8012B28BF20F8023B48BF00F833
:10065000012B70474FF0000200B5134694469646B2
:10066000203922BFA0E80C50A0E80C50B1F12001C5
:10067000BFF4F7AF090728BFA0E80C5048BF0CC073
:100680005DF804EB890028BF40F8042B08BF7047D1
:1006900048BF20F8022B11F0804F18BF00F8012B43
:1006A0007047704770477047754600F02BF8AE46AC
:1006B00005006946534620F00700854618B020B56E
:1006C000FFF7C8FEBDE820404FF000064FF00007DE
:1006D0004FF000084FF0000B21F00701AC46ACE8EA
:1006E000C009ACE8C009ACE8C009ACE8C0098D4657
:1006F000704710B50446AFF300802046BDE81040B7
:10070000FFF733BE00487047041503240149182041
:10071000ABBEFEE7260002007047000010B504469D
:100720002146024803F066FD10BD00005C10002465
:1007300010B5044803F071FD042801D0012010BD5C
:100740000020FCE75C10002410B5002400F014F831
:10075000012801D0022010BD064803F01FFF044607
:1007600034B94FF48041034803F09EFB00B10124EB
:100770002046F0E75C10002408B5012000909DF8A9
:10078000000008BD2DE9F04104460D46164600273D
:1007900033462A462146044804F044F800B10127B4
:1007A0003846BDE8F08100005C10002410B500223E
:1007B0000121024800680BF067FF10BD48100024BB
:1007C0002DE9F04104460D461646002733462A46D9
:1007D0002146044804F0A6F800B101273846BDE8D8
:1007E000F08100005C10002410B5002202210248B4
:1007F00000680BF049FF10BD4810002400BFFEE761
:1008000010B50C48806840F400100A49886008461A
:10081000006C20F0100008640748006830B10648FA
:1008200001680648006806F0EBFE02E0002004497B
:10083000087010BD000002400000002404000024E5
:10084000080000247047000010B5102008F04AFC92
:1008500000221021014800F013FE10BD00100258C4
:1008600010B5112008F03EFC01221021014800F0D3
:1008700007FE10BD001002582DE9F04FDDE90AC84F
:10088000DDE90D47099E4FF6FF7909EA410527E0AA
:100890004FEA242BC2EB021905EB491900F809B005
:1008A000C2EB021905EB491909F1010900F80940E9
:1008B0004FEA242B02EB0609C9EB091905EB49198C
:1008C00000F809B002EB0609C9EB091905EB491953
:1008D00009F1010900F8094005F102091FFA89F53B
:1008E00001EB0309B5EB490FD2DD15462FE04FEAC6
:1008F0002429C5EB051B4FEA4B1B0BEB410B00F802
:100900000B90C5EB051B4FEA4B1B0BEB410B0BF19F
:10091000010B00F80B404FEA2429C5EB051B4FEAF9
:100920004B1B01EB030E0BEB4E0B00F80B90C5EBD2
:10093000051B4FEA4B1B01EB030E0BEB4E0B0BF1B0
:10094000010B00F80B4005F101091FFA89F502EBD4
:100950000609A945CBDCA8EB0C0593FBF5F90C9D2A
:1009600009FB05151FFA85FA02F101091FFA89F53D
:1009700043E001F1010B1FFA8BF917E04FEA242B3A
:10098000C5EB051E4FEA4E1E0EEB490E00F80EB0E9
:10099000C5EB051E4FEA4E1E0EEB490E0EF1010E81
:1009A00000F80E4009F1010B1FFA8BF9D145E5DB88
:1009B0000AF1010B1FFA8BF917E04FEA272BC5EB61
:1009C000051E4FEA4E1E0EEB490E00F80EB0C5EBA9
:1009D000051E4FEA4E1E0EEB490E0EF1010E00F8F9
:1009E0000E7009F1010B1FFA8BF901EB030BCB45DC
:1009F000E3DC05F101091FFA89F502EB0609A945B7
:100A0000B7DCBDE8F08F2DE9F047DDE9094C089F20
:100A10004FF6FF7606EA41051FE04FEA2429C2EBB4
:100A2000021605EB461600F80690C2EB021605EB1F
:100A30004616761C84554FEA2429D619C6EB0616AD
:100A400005EB461600F80690D619C6EB061605EB20
:100A50004616761C8455AE1CB5B2CE18B5EB460FC3
:100A6000DBDD154625E02612C5EB05194FEA4919CD
:100A700009EB410900F80960C5EB0516760106EBA4
:100A80004106761C84554FEA2429C5EB05164FEA2A
:100A9000461ACE180AEB460600F80690C5EB051676
:100AA0004FEA461ACE180AEB4606761C84556E1C91
:100AB000B5B2D619AE42D6DC30EEC02A01EE903A7D
:100AC000F8EE612AC2EE821A61EE811AFCEEE11A9A
:100AD00011EE905A0D441FFA85F8561CB5B241E04C
:100AE00001F101091FFA89F617E04FEA2429C5EB45
:100AF000051A4FEA4A1A0AEB460A00F80A90C5EBB3
:100B000005194FEA491909EB460909F1010900F8ED
:100B1000094006F101091FFA89F64645E5DB08F1AF
:100B200001091FFA89F617E04FEA2C29C5EB051ACF
:100B30004FEA4A1A0AEB460A00F80A90C5EB051973
:100B40004FEA491909EB460909F1010900F809C002
:100B500006F101091FFA89F601EB0309B145E3DC4F
:100B60006E1CB5B2D619AE42BADCBDE8F087000003
:100B70002DE9F04389B004460D4616461F46DDF8C0
:100B800040802022224901A8FFF732FD00213AE0EF
:100B9000002034E001AA32F811204FF40043034151
:100BA0001A40A2B13A126B0003EB400301EB060CB2
:100BB0004FF4F07909FB0C33E2546A0002EB400277
:100BC00001EB060C09FB0C22521CA75415E04FEA5E
:100BD00028226B0003EB400301EB060C4FF4F07985
:100BE00009FB0C33E2546A0002EB400201EB060CF5
:100BF00009FB0C22521C04F80280421CD0B21028BF
:100C0000C8DB481CC1B21029C2DB09B0BDE8F083C3
:100C1000C81B01082DE9F04706460D46DDE9084CE2
:100C20002819F02801DDBDE8F08702EB0C00B0F5D3
:100C3000A07F00DDF7E7C2EB0210400100EB4507A3
:100C400000212DE0002027E04FEA440808FB01F8CE
:100C500008EB400813F8089007EB400AC1EB0118B5
:100C60000AEB481806F808904FEA440808FB01F818
:100C700008EB400808F1010813F8089007EB400A58
:100C8000C1EB01180AEB481808F1010806F80890B2
:100C900000F1010808F0FF00A042D5DB481CC1B2FA
:100CA0006145CFDB00BFBEE72DE9F04389B00446C4
:100CB0000D4616461F46DDF840802022224901A835
:100CC000FFF796FC00213AE0002034E001AA32F858
:100CD00011204FF4004303411A40A2B13A126B00B5
:100CE00003EB400301EB060C4FF4F07909FB0C33E6
:100CF000E2546A0002EB400201EB060C09FB0C22F5
:100D0000521CA75415E04FEA28226B0003EB400366
:100D100001EB060C4FF4F07909FB0C33E2546A0046
:100D200002EB400201EB060C09FB0C22521C04F8FA
:100D30000280421CD0B21028C8DB481CC1B2102966
:100D4000C2DB09B0BDE8F083A81B01082DE9F04320
:100D50000446DDF81CC0DFED5D0AB4EEE00AF1EEFA
:100D600010FA03DDDFED590AB0EE600AB0EE041AA6
:100D7000C0EE010A9FED561A71EE600AFCEEE00A21
:100D800010EE907A002030E086081D12C2EB0218A7
:100D90004FEA481808EB410808EB400804F80850EF
:100DA000C2EB02156D0105EB410505EB40056D1C1D
:100DB00063551D12A2EB0608C8EB08184FEA481845
:100DC00008EB410808EB400804F80850A2EB0608BD
:100DD000C8EB08184FEA481808EB410808EB400830
:100DE00008F1010804F80830401C3C28CCD3F0B2CC
:100DF00018E04FEA23280225C5EB4109151AC5EB77
:100E0000051509EB4515783504F805800225C5EB75
:100E10004109151AC5EB051509EB451579356355DB
:100E2000451EE8B20028E4DC00204AE086080125DF
:100E300044E006281ED9B8421CD84FEA2328A2EB6A
:100E40000509C9EB09194FEA491909EB410909EBF1
:100E5000400904F80980A2EB0509C9EB09194FEA1A
:100E6000491909EB410909EB400909F1010904F8A5
:100E700009301FE006281DD9B8421BD94FEA2C289B
:100E8000A2EB0509C9EB09194FEA491909EB410918
:100E900009EB400904F80980A2EB0509C9EB09191F
:100EA0004FEA491909EB410909EB400909F1010928
:100EB00004F809C005F1010808F0FF05B542B8D3F0
:100EC000401C3B28B2D3BDE8F0830000000016436D
:100ED0000000704272B600BFFEE730B504460D4612
:100EE00000222946204600F001F830BDF0B5034647
:100EF000012500241148407A01281CDA00200F4EF9
:100F0000767A0E4FB8553846467A001D40F826309E
:100F1000001F467A083082553E46707A461C7E7223
:100F2000044604F1300008703A2048702F20887081
:100F30000020C87000252846F0BD0000F8140324E6
:100F40002DE9FC41044694F82C00002871D10025BD
:100F50000026E06800F10C0793A104F5496009F050
:100F600095FF00287ED11F2008F052F9002008F0DC
:100F700043F97CE004F6086104F549600AF05DF984
:100F800040F61460005D00F0040000286FD1E068B6
:100F9000A8426BD8BD4269D240F62260005D0028AD
:100FA00048D0E168691A01EBC1014FF6FF7303EA0B
:100FB000410204F622631221A06808F04DF90026D0
:100FC00000BF04F62260815DE0682A1A04F1320055
:100FD00000EB022081553146701C86B204F6226077
:100FE000405C0028EDD194F81D0E2E2810D112205F
:100FF00000900190E168691A01EBC1014FF6FF739F
:1010000003EA4102694B0021A068FFF703FE2DE0CF
:10101000122000900190E168691A01EBC1014FF6BE
:10102000FF7303EA4102624B0021A068FFF7F2FD63
:101030001CE036E015E0E168691A01EBC1014FF6EA
:10104000FF7303EA41025BA30021A06808F004F9E2
:101050000021E0682A1A04F1320000EB022001703E
:101060006D1C01E005E002E0BD42E4D36D1CBD4211
:1010700080D304F5496009F085FC00201F21D823A6
:101080000122CDE90010E021204604F013FD1E20CE
:1010900000900190484BE1220521A068FFF7BAFDBE
:1010A00080E094F82C0001287CD1002003E000218E
:1010B000A2681154401C41498842F8D31E20009078
:1010C00001903F4BE1220521A068FFF7A3FD4FF6F9
:1010D000FF7008F09DF8002008F08EF839A3122266
:1010E0005321A06808F09AF8012084F82D00002010
:1010F00000901F232522CD21A068FFF7D5FD0020F9
:1011000000901F2325221421A068FFF731FD30A392
:1011100048225821A06808F081F8012084F82E00A8
:10112000002000901F235B22CD21A068FFF7BCFDAB
:10113000002000901F235B221421A068FFF718FDF8
:1011400026A37E225321A06808F068F8012084F8C5
:101150002F00002000901F239122CD21A068FFF7CF
:10116000A3FD002000901F2391221421A068FFF707
:10117000FFFC1DA3B3225821A06808F04FF80120FE
:1011800084F83000002000901F23C622CD21A068E3
:10119000FFF78AFD002000901F23C6221421A068BB
:1011A000FFF7E6FCBDE8FC812F000000581601089F
:1011B000E018010820000000EC660108E09601003C
:1011C000F46D0108D3F1E8EBE5EDE8E520C2D700C6
:1011D000C3F0E0EDE8F6E020C2D70000D3F1E8EB81
:1011E000E5EDE8E520CDD700C3F0E0EDE8F6E0203E
:1011F000CDD7000010B504462078012822D112A1D5
:1012000004F5496009F042FEC0B900BF04F6086168
:1012100004F549600AF011F840F62260005D40B123
:1012200040F61460005D00F0040010B96068401CD6
:10123000606040F62260005D0028E7D104F5496057
:1012400009F0A0FB606810BD2F00000070B50446D7
:1012500000F022F906462546681C10B104480078C3
:10126000054400BF00F018F9801BA842FAD370BDF6
:10127000D00F0024F8B502460B4600216F4DD7E091
:1012800001278F401E6806EA0704002C72D01E79E1
:1012900006F00306012E04D01E7906F00306022E86
:1012A00013D190684F000326BE40B0434F00DE6864
:1012B000BE4030439060506801268E40B0431E7996
:1012C000C6F300168E40304350601E7906F00306C8
:1012D000032E09D0D0684F000326BE40B0434F0014
:1012E0009E68BE403043D0601E7906F00306022E91
:1012F00013D1CF0802F1200656F827004E07F70E4B
:101300000F26BE40B0434F07FF0E1E69BE4030435C
:10131000CF0802F1200646F8270010684F00032688
:10132000BE40B0431E7906F003064F00BE40304376
:1013300010605E6806F44036002E78D000BF404E44
:10134000366846F002063E4F3E603E46366806F07E
:101350000206009600BF00BF3A4E8F0856F82700DD
:101360008E07370F0F26BE40B043374EB24202D130
:1013700000262EE05BE0354EB24201D1012628E086
:10138000334EB24201D1022623E0324EB24201D1A5
:1013900003261EE0304EB24201D1042619E02F4E42
:1013A000B24201D1052614E02D4EB24201D10626EB
:1013B0000FE02C4EB24201D107260AE02A4EB2427B
:1013C00001D1082605E0294EB24201D1092600E0EC
:1013D0000A268F073F0FBE4030431A4E8F0846F84B
:1013E00027004FF0B0463068A0435E6806F48016D0
:1013F00006B120434FF0B04630607068A0435E688D
:1014000006F4001606B120434FF0B04670606868DD
:10141000A0435E6806F4003606B120436860286881
:10142000A0435E6806F4803606B120432860491C5C
:101430001E68CE40002E7FF423AFF8BD8000005818
:10144000F4440258080400580000025800040258EE
:1014500000080258000C02580010025800140258EC
:1014600000180258001C025800200258002402589C
:10147000024613690B400BB1012000E000207047C9
:101480000AB1816101E00B04836170470148006883
:10149000000C70470010005C0148006870470000B5
:1014A000C80F00240348006803490978084401492B
:1014B00008607047C80F0024D00F002410B5032027
:1014C00000F0E0F801F0D6FF10490968C1F30321EC
:1014D0000F4A515C01F01F0120FA01F40B4800682B
:1014E00000F00F001146085C00F01F0024FA00F025
:1014F00008490860084804600F2000F00FF808B1A0
:10150000012010BD00F054F80020FAE718440258FA
:1015100050750108D80F0024D40F002470B58AB08C
:101520000446102C0AD200222146192000F06CF843
:10153000192000F055F81948046002E001200AB0B3
:1015400070BD00BF1648006840F0010014490860F3
:101550000846006800F00100009000BF00BF01A92C
:1015600002A801F019FF01F073FF06460D48B6FB13
:10157000F0F0451E0C480D49086040F2E7310B4879
:10158000C160456000210161816003F0C4FE18B9AB
:10159000064803F0F9FED2E70120D0E7CC0F002483
:1015A000F044025840420F0000000140B47B022486
:1015B00008B500BF0948006840F00200074908600C
:1015C0000846006800F00200009000BF00BF002243
:1015D0000F21901E00F018F808BD0000F4440258D6
:1015E0000146084600280DDB00BF00BF00F01F03C6
:1015F00001229A4043099B0003F1E023C3F8002134
:1016000000BF00BF00BF70472DE9F05F80460D4668
:10161000164608F0B1F9074639462A46334601F026
:101620000700C0F1070ABAF1040F02D94FF0040A0B
:1016300001E0C0F1070AD14600F1040ABAF1070F30
:1016400002D24FF0000A01E0A0F1030AD4464FF0A5
:10165000010A0AFA09FAAAF1010A0AEA020A0AFACE
:101660000CFA4FF0010B0BFA0CFBABF1010B0BEA80
:10167000030B4AEA0B042146404608F085F9BDE811
:10168000F09F000000BF00F00702064B19684FF6FC
:10169000FF031940044B0B4343EA0221014B19603D
:1016A00000BF70470CED00E00000FA0570B504467D
:1016B00015480068C0F3800048B91348006800F07E
:1016C0000700A04201D0012070BD0020FCE70E48B9
:1016D000006820F0070020430B490860FFF7DCFE9C
:1016E000054607E0FFF7D8FE401BB0F57A7F01D929
:1016F0000120E9E7044808380068C0F340300028BA
:10170000F0D00020E0E700000C48025810B501F0CE
:1017100079FE05490968C1F30211044A515C01F0E0
:101720001F01C84010BD0000204402585075010838
:1017300070B50146844D2D6805F00303824D2D6878
:10174000C5F30510804D2D1D2D6805F001047E4D5B
:101750000C352D68C5F3CC0515FB04F501EE105AC8
:10176000B8EE411AF0EE410A00286FD023B1012BE8
:101770004ED0022B6BD16BE0734D283D2D68C5F325
:1017800040153DB3704D283D2D68C5F3C1066F4D22
:1017900025FA06F201EE102AF8EE411A01EE100ABF
:1017A000B8EE411A81EE812A9FED691AC0EE811AC6
:1017B000654D08352D68C5F3080501EE105AB8EEE1
:1017C000411A31EE811AF7EE001A31EE211A22EE9B
:1017D000010A1CE001EE100AB8EE411ADFED5D1AB5
:1017E00081EE812A9FED5A1AC0EE811A564D0835B6
:1017F0002D68C5F3080501EE105AB8EE411A31EE16
:10180000811AF7EE001A31EE211A22EE010A5BE08E
:1018100001EE100AB8EE411ADFED4F1A81EE812A6F
:101820009FED4B1AC0EE811A474D08352D68C5F360
:10183000080501EE105AB8EE411A31EE811AF7EEA2
:10184000001A31EE211A22EE010A3DE077E01DE098
:1018500001EE100AB8EE411A9FED402AC2EE011ABD
:101860009FED3B1A80EE812A374D08352D68C5F370
:10187000080501EE105AB8EE411A32EE011AB7EE21
:10188000002A31EE021A21EE810A1DE001EE100A53
:10189000B8EE411ADFED2F1A81EE812A9FED2C1A46
:1018A000C0EE811A284D08352D68C5F3080501EEF4
:1018B000105AB8EE411A31EE811AF7EE001A31EEE5
:1018C000211A22EE010A00BF00BF1F4D08352D6806
:1018D000C5F3462501EE105AB8EE411AF7EE001A8C
:1018E00031EE211AC0EE011ABCEEE11A81ED001AA8
:1018F000154D08352D68C5F3064501EE105AB8EEB2
:10190000411AF7EE001A31EE211AC0EE011ABCEEB0
:10191000E11A81ED011A0C4D08352D68C5F30665F5
:1019200001EE105AB8EE411AF7EE001A31EE211A04
:10193000C0EE011ABCEEE11A81ED021A03E00025A7
:101940000D604D608D6070BD284402580090D0033A
:10195000000000460024744C0024744A001B374BDE
:1019600070B50146844D2D6805F00303824D2D6846
:10197000C5F30530804D2D1D2D68C5F300147E4D37
:1019800014352D68C5F3CC0515FB04F501EE105A8E
:10199000B8EE411AF0EE410A00286FD023B1012BB6
:1019A0004ED0022B6BD16BE0734D283D2D68C5F3F3
:1019B00040153DB3704D283D2D68C5F3C1066F4DF0
:1019C00025FA06F201EE102AF8EE411A01EE100A8D
:1019D000B8EE411A81EE812A9FED691AC0EE811A94
:1019E000654D10352D68C5F3080501EE105AB8EEA7
:1019F000411A31EE811AF7EE001A31EE211A22EE69
:101A0000010A1CE001EE100AB8EE411ADFED5D1A82
:101A100081EE812A9FED5A1AC0EE811A564D10357B
:101A20002D68C5F3080501EE105AB8EE411A31EEE3
:101A3000811AF7EE001A31EE211A22EE010A5BE05C
:101A400001EE100AB8EE411ADFED4F1A81EE812A3D
:101A50009FED4B1AC0EE811A474D10352D68C5F326
:101A6000080501EE105AB8EE411A31EE811AF7EE70
:101A7000001A31EE211A22EE010A3DE077E01DE066
:101A800001EE100AB8EE411A9FED402AC2EE011A8B
:101A90009FED3B1A80EE812A374D10352D68C5F336
:101AA000080501EE105AB8EE411A32EE011AB7EEEF
:101AB000002A31EE021A21EE810A1DE001EE100A21
:101AC000B8EE411ADFED301A81EE812A9FED2C1A13
:101AD000C0EE811A284D10352D68C5F3080501EEBA
:101AE000105AB8EE411A31EE811AF7EE001A31EEB3
:101AF000211A22EE010A00BF00BF1F4D10352D68CC
:101B0000C5F3462501EE105AB8EE411AF7EE001A59
:101B100031EE211AC0EE011ABCEEE11A81ED001A75
:101B2000154D10352D68C5F3064501EE105AB8EE77
:101B3000411AF7EE001A31EE211AC0EE011ABCEE7E
:101B4000E11A81ED011A0C4D10352D68C5F30665BB
:101B500001EE105AB8EE411AF7EE001A31EE211AD2
:101B6000C0EE011ABCEEE11A81ED021A03E0002575
:101B70000D604D608D6070BD284402580090D00308
:101B8000000000460024744C0024744A001B374BAC
:101B900070B50146844D2D6805F00303824D2D6814
:101BA000C5F30550804D2D1D2D68C5F300247E4DD5
:101BB0001C352D68C5F3CC0515FB04F501EE105A54
:101BC000B8EE411AF0EE410A00286FD023B1012B84
:101BD0004ED0022B6BD16BE0734D283D2D68C5F3C1
:101BE00040153DB3704D283D2D68C5F3C1066F4DBE
:101BF00025FA06F201EE102AF8EE411A01EE100A5B
:101C0000B8EE411A81EE812A9FED691AC0EE811A61
:101C1000654D18352D68C5F3080501EE105AB8EE6C
:101C2000411A31EE811AF7EE001A31EE211A22EE36
:101C3000010A1CE001EE100AB8EE411ADFED5D1A50
:101C400081EE812A9FED5A1AC0EE811A564D183541
:101C50002D68C5F3080501EE105AB8EE411A31EEB1
:101C6000811AF7EE001A31EE211A22EE010A5BE02A
:101C700001EE100AB8EE411ADFED4F1A81EE812A0B
:101C80009FED4B1AC0EE811A474D18352D68C5F3EC
:101C9000080501EE105AB8EE411A31EE811AF7EE3E
:101CA000001A31EE211A22EE010A3DE077E01DE034
:101CB00001EE100AB8EE411A9FED402AC2EE011A59
:101CC0009FED3B1A80EE812A374D18352D68C5F3FC
:101CD000080501EE105AB8EE411A32EE011AB7EEBD
:101CE000002A31EE021A21EE810A1DE001EE100AEF
:101CF000B8EE411ADFED301A81EE812A9FED2C1AE1
:101D0000C0EE811A284D18352D68C5F3080501EE7F
:101D1000105AB8EE411A31EE811AF7EE001A31EE80
:101D2000211A22EE010A00BF00BF1F4D18352D6891
:101D3000C5F3462501EE105AB8EE411AF7EE001A27
:101D400031EE211AC0EE011ABCEEE11A81ED001A43
:101D5000154D18352D68C5F3064501EE105AB8EE3D
:101D6000411AF7EE001A31EE211AC0EE011ABCEE4C
:101D7000E11A81ED011A0C4D18352D68C5F3066581
:101D800001EE105AB8EE411AF7EE001A31EE211AA0
:101D9000C0EE011ABCEEE11A81ED021A03E0002543
:101DA0000D604D608D6070BD284402580090D003D6
:101DB000000000460024744C0024744A001B374B7A
:101DC0002DE9F0418AB00646B6F5807F70D1FE4815
:101DD000006800F00708B8F1050F65D2DFE808F0E9
:101DE000031221623000F8485038006800F000709B
:101DF000B0F1007F04D107A8FFF79AFC089C00E02F
:101E0000002453E0F0485038006800F00060B0F162
:101E1000006F04D104A8FFF7A3FD049C00E0002498
:101E200044E0E9485038006800F00050B0F1005F2D
:101E300004D101A8FFF7ACFE019C00E0002435E0CE
:101E4000E148001F006800F04055DF485038006846
:101E500000F00400042809D145B9DB485038006877
:101E6000C0F3C101D94820FA01F41AE0D64850382D
:101E7000006800F48070B0F5807F04D1B5F1805F18
:101E800001D1D34C0DE0D0485038006800F4003048
:101E9000B0F5003F04D1B5F1005F01D1CD4C00E0B9
:101EA000002403E0CC4C01E0002400BF24E3FFE762
:101EB000B6F5007F7AD1C448006800F4E078B8F144
:101EC000800F2CD006DCB8F1000F0AD0B8F1400F1B
:101ED00069D115E0B8F1C00F63D0B8F5807F62D149
:101EE0002CE0B9485038006800F00070B0F1007F75
:101EF00004D107A8FFF71CFC089C00E0002454E074
:101F0000B1485038006800F00060B0F1006F04D1B3
:101F100004A8FFF725FD049C00E0002445E0AA4842
:101F20005038006800F00050B0F1005F04D101A803
:101F3000FFF72EFE019C00E0002436E0A248001FBF
:101F4000006800F04055A0485038006800F00400D8
:101F5000042809D145B99C4850380068C0F3C10134
:101F60009A4820FA01F41BE097485038006800F4C2
:101F70008070B0F5807F04D1B5F1805F01D1944CC1
:101F80000EE091485038006800F40030B0F5003F92
:101F900005D1B5F1005F02D18E4C01E006E00024CE
:101FA00003E08D4C01E0002400BFA5E2B6F5806F90
:101FB0007BD185480830006800F46008B8F5800FD0
:101FC0002CD006DCB8F1000F0AD0B8F5001F69D19B
:101FD00015E0B8F5C00F63D0B8F5000F62D12CE062
:101FE00079485038006800F00070B0F1007F04D1EB
:101FF00007A8FFF79DFB089C00E0002454E072480E
:102000005038006800F00060B0F1006F04D104A8FF
:10201000FFF7A6FC049C00E0002445E06A48503825
:10202000006800F00050B0F1005F04D101A8FFF794
:10203000AFFD019C00E0002436E06348001F00680B
:1020400000F0405560485038006800F00400042853
:1020500009D145B95C4850380068C0F3C1015B48FC
:1020600020FA01F41BE058485038006800F48070F2
:10207000B0F5807F04D1B5F1805F01D1544C0EE002
:1020800051485038006800F40030B0F5003F05D1E9
:10209000B5F1005F02D14F4C01E006E0002403E0FF
:1020A0004D4C01E0002400BF26E2B6F5006F7BD165
:1020B00045480830006800F0E068B8F1007F2CD097
:1020C00006DCB8F1000F0AD0B8F1807F69D115E0C5
:1020D000B8F1407F63D0B8F1806F62D12CE03A480C
:1020E0005038006800F00070B0F1007F04D107A8FC
:1020F000FFF71EFB089C00E0002454E032485038F3
:10210000006800F00060B0F1006F04D104A8FFF790
:1021100027FC049C00E0002445E02B485038006870
:1021200000F00050B0F1005F04D101A8FFF730FDCE
:10213000019C00E0002436E02348001F006800F006
:10214000405521485038006800F00400042809D1A7
:1021500045B91D4850380068C0F3C1011B4820FA3A
:1021600001F41BE018485038006800F48070B0F5A6
:10217000807F04D1B5F1805F01D1154C0EE012488B
:102180005038006800F40030B0F5003F05D1B5F1DB
:10219000005F02D10F4C01E006E0002403E00E4C8A
:1021A00001E0002400BFA7E1B6F5805F7CD10648BE
:1021B000006800F4E047B7F5005F32D00EDCA7B14D
:1021C000B7F5805F6DD11EE0504402580090D003F7
:1021D00000093D00001BB7000080BB00B7F5405F61
:1021E0005DD0B7F5804F5CD129E0C548006800F0AC
:1021F0000070B0F1007F04D107A8FFF799FA089C9E
:1022000000E000244FE0BE48006800F00060B0F13C
:10221000006F04D104A8FFF7A3FB049C00E0002496
:1022200041E0B748006800F00050B0F1005F04D111
:1022300001A8FFF7ADFC019C00E0002433E0B048AA
:102240004C30006800F04055AD48006800F00400D4
:10225000042808D13DB9AA480068C0F3C101A948C3
:1022600020FA01F41AE0A648006800F48070B0F586
:10227000807F04D1B5F1805F01D1A34C0EE0A0486E
:10228000006800F40030B0F5003F06D1B5F1005F02
:1022900003D19E4C02E007E003E0002403E09C4CE5
:1022A00001E0002400BF27E1B6F5002F59D1944882
:1022B0005830006800F4403737B1B7F5803F11D08F
:1022C000B7F5003F4AD11BE08D48006800F0006080
:1022D000B0F1006F04D104A8FFF742FB049C00E0BA
:1022E00000243DE08648006800F00050B0F1005F37
:1022F00004D101A8FFF74CFC039C00E000242FE070
:102300007F484C30006800F040557D48006800F080
:102310000400042808D13DB979480068C0F3C10120
:10232000784820FA01F418E07548006800F48070DD
:10233000B0F5807F04D1B5F1805F01D1724C0CE023
:102340006F48006800F40030B0F5003F04D1B5F1EB
:10235000005F01D16D4C00E0002401E0002400BFCB
:10236000CAE0B6F5803F28D165484C30006800F4DB
:1023700080371FB1B7F5803F1CD10DE06048006881
:1023800000F00070B0F1007F04D107A8FFF7D0F98A
:10239000089C00E000240FE05948006800F000604D
:1023A000B0F1006F04D104A8FFF7DAFA069C00E050
:1023B000002401E0002400BF9EE0B6F5804F60D10C
:1023C0004F485830006800F0E047B7F1405F2FD029
:1023D00007DC6FB1B7F1805F0ED0B7F1005F4DD170
:1023E00018E0B7F1804F33D0B7F1A04F46D13AE0B3
:1023F000FFF78CF9044643E04148006800F00060B4
:10240000B0F1006F04D104A8FFF7AAFA059C00E020
:10241000002435E03A48006800F00050B0F1005F59
:1024200004D101A8FFF7B4FB029C00E0002427E0E0
:102430003348006800F00400042807D130480068E1
:10244000C0F3C1012F4820FA01F400E0002417E096
:102450002B48006800F48070B0F5807F01D12A4CD1
:1024600000E000240CE02648006800F40030B0F5DD
:10247000003F01D1254C00E0002401E0002400BF12
:102480003AE0B6F5004F36D11D485030006800F0F4
:10249000405737B1B7F1805F0ED0B7F1005F27D159
:1024A00018E01748006800F40030B0F5003F01D193
:1024B000164C00E000241DE01148006800F0007098
:1024C000B0F1007F04D107A8FFF732F9089C00E0C3
:1024D00000240FE00A48006800F00060B0F1006FCF
:1024E00004D104A8FFF73CFA059C00E0002401E0B9
:1024F000002400BF00E0002420460AB0BDE8F081BF
:10250000004402580090D00300093D00001BB700B2
:102510000080BB002DE9F04104460025A846206854
:1025200000F00060B0F1006F30D1606E48B1B0F5DE
:10253000801F0DD0B0F5001F10D0B0F5401F15D191
:1025400013E0F948006840F40030F74908600FE0F4
:102550000221201D03F0DAFB054609E0022104F107
:10256000240003F085FC054602E001E0012500BFE0
:1025700000BF55B9EC482430006820F44010616E6B
:102580000843E9492431086000E0A846208800F4A7
:102590008070B0F5807F2DD1606D05281AD2DFE8FC
:1025A00000F0030A10171800DF48006840F40030FC
:1025B000DD49086010E00021201D03F0A7FB05465F
:1025C0000AE0002104F1240003F052FC054603E078
:1025D00002E001E0012500BF00BF55B9D248243018
:1025E000006820F00700616D0843CF49243108607E
:1025F00000E0A846208800F40070B0F5007F33D1D9
:10260000A06D802817D003DC40B140281CD10CE01D
:10261000C02817D0B0F5807F16D114E0C2480068FA
:1026200040F40030C049086010E00021201D03F094
:102630006DFB05460AE0002104F1240003F018FCBC
:10264000054603E002E001E0012500BF00BF55B9E7
:10265000B5482430006820F4E070A16D0843B24909
:102660002431086000E0A846208800F48060B0F5BE
:10267000806F38D1D4F8A400B0F5800F19D004DCF5
:1026800050B1B0F5001F1DD10DE0B0F5C00F17D04F
:10269000B0F5000F16D114E0A348006840F40030F4
:1026A000A149086010E00021201D03F02FFB054622
:1026B0000AE0002104F1240003F0DAFB054603E000
:1026C00002E001E0012500BF00BF5DB996482C3053
:1026D000006820F46000D4F8A410084392492C311B
:1026E000086000E0A846208800F40060B0F5006FA4
:1026F00038D1D4F8A800B0F1007F19D004DC50B173
:10270000B0F1807F1DD10DE0B0F1407F17D0B0F166
:10271000806F16D114E08448006840F4003082498C
:10272000086010E00021201D03F0F0FA05460AE0E1
:10273000002104F1240003F09BFB054603E002E0C6
:1027400001E0012500BF00BF5DB977482C3000686B
:1027500020F0E060D4F8A810084373492C310860D9
:1027600000E0A846206800F00070B0F1007F27D19B
:10277000A06CA0B1102804D0202809D030280FD197
:102780000CE06948006840F400306749086009E0DF
:102790000221201D03F0BAFA054603E002E001E041
:1027A000012500BF00BF55B95F482030006820F008
:1027B0003000A16C08435C492031086000E0A84665
:1027C000208800F48050B0F5805F36D1E06DB0F520
:1027D000005F19D004DC50B1B0F5805F1DD10DE071
:1027E000B0F5405F17D0B0F5804F16D114E04E48D9
:1027F000006840F400304C49086010E00021201DC2
:1028000003F084FA05460AE0002104F1240003F0F5
:102810002FFB054603E002E001E0012500BF00BFF9
:1028200055B941482430006820F4E040E16D084388
:102830003D492431086000E0A846208800F400509B
:10284000B0F5005F34D1206EB0F5403F1DD007DCFD
:1028500068B1B0F5803F0BD0B0F5003F18D10DE066
:10286000B0F5802F12D0B0F5A02F11D10FE011E0FC
:102870000121201D03F04AFA05460BE0012104F175
:10288000240003F0F5FA054604E003E002E001E06D
:10289000012500BF00BF55B923482430006820F44B
:1028A000E020216E084320492431086000E0A8465A
:1028B000208800F48040B0F5804F38D1D4F8AC00C7
:1028C000B0F1405F1DD007DC68B1B0F1805F0BD084
:1028D000B0F1005F18D10DE0B0F1804F12D0B0F12F
:1028E000A04F11D10FE011E00121201D03F00EFADD
:1028F00005460BE0012104F1240003F0B9FA054676
:1029000004E003E002E001E0012500BF00BF6DB973
:1029100005482C30006820F0E040D4F8AC100843A3
:1029200001492C31086002E02C440258A846208856
:1029300000F40040B0F5004F26D1E06E98B1B0F140
:10294000805F03D0B0F1005F0ED106E0F948006867
:1029500040F40030F749086008E00121201D03F031
:10296000D5F9054602E001E0012500BF00BF55B9D9
:10297000F0482430006820F04050E16E0843ED49F3
:102980002431086000E0A846206800F08070B0F1B3
:10299000807F27D1606CA0B1012804D0022809D023
:1029A00003280FD10CE0E348006840F40030E1490F
:1029B000086009E00221201D03F0A8F9054603E0A4
:1029C00002E001E0012500BF00BF55B9D948203021
:1029D000006820F00300616C0843D649203108608C
:1029E00000E0A846206800F48000B0F5800F7DD19B
:1029F000D148006840F48070CF490860FEF74CFD74
:102A0000064606E0FEF748FD801B642801D9032531
:102A100005E0C948006800F480700028F2D000BFCB
:102A200085BBC4484430006800F44070B4F8B0106E
:102A300001F44071884213D0BE484430006820F44D
:102A40004077BC484430006840F48030B949443194
:102A500008600846006820F4803008600846076077
:102A6000D4F8B000B0F5807F15D1FEF715FD06460D
:102A700009E0FEF711FD801B41F28831884202D93E
:102A8000032507E038E0AB4844300068C0F340005D
:102A90000028EED000BF55BB00BFB4F8B00000F472
:102AA0004070B0F5407F0ED1A2481C38006820F479
:102AB0007C51A24AD4F8B000104041EA10109D4960
:102AC0001C39086007E09B481C38006820F47C50E3
:102AD00098491C390860974844300068B4F8B01031
:102AE000C1F30B0108439349443101E005E001E0E3
:102AF000086002E0A84600E0A846207800F0010047
:102B000068B3A06F182819D005DC48B1082808D090
:102B1000102816D10BE0202811D0282811D10FE061
:102B200011E00121201D03F0F1F805460BE0012121
:102B300004F1240003F09CF9054604E003E002E000
:102B400001E0012500BF00BF55B97A482830006870
:102B500020F03800A16F084376492831086000E072
:102B6000A846207800F00200022828D1606F0628CD
:102B700015D2DFE800F003040A11121311E001215D
:102B8000201D03F0C3F805460BE0012104F12400E9
:102B900003F06EF9054604E003E002E001E00125E0
:102BA00000BF00BF55B963482830006820F0070017
:102BB000616F08435F492831086000E0A84620782B
:102BC00000F0040004282AD1D4F89000062815D279
:102BD000DFE800F003040A11121311E00121201DA7
:102BE00003F094F805460BE0012104F1240003F002
:102BF0003FF9054604E003E002E001E0012500BFE3
:102C000000BF5DB94B482C30006820F00700D4F8B5
:102C10009010084347492C31086000E0A84620780E
:102C200000F02000202836D1D4F88C00B0F1405FAD
:102C30001DD007DC68B1B0F1805F0BD0B0F1005F50
:102C400018D10DE0B0F1804F12D0B0F1A04F11D1EA
:102C50000FE011E00021201D03F058F805460BE0BD
:102C6000022104F1240003F003F9054604E003E027
:102C700002E001E0012500BF00BF5DB92D4828300A
:102C8000006820F0E040D4F88C100843294928312E
:102C9000086000E0A846207800F04000402836D1C7
:102CA000D4F89800B0F5406F1DD007DC68B1B0F5DE
:102CB000806F0BD0B0F5006F18D10DE0B0F5805FDC
:102CC00012D0B0F5A05F11D10FE011E00021201D5E
:102CD00003F01CF805460BE0022104F1240003F088
:102CE000C7F8054604E003E002E001E0012500BF6B
:102CF00000BF5DB90F482C30006820F4E050D4F8D4
:102D0000981008430B492C31086000E0A846207851
:102D100000F0800080283AD1D4F89C00B0F5C04F74
:102D200023D00DDC98B1B0F5005F11D0B0F5804F25
:102D30001ED113E02C44025800480258FFFCFF0F3C
:102D4000B0F5004F12D0B0F5204F11D10FE011E0D7
:102D50000021201D02F0DAFF05460BE0022104F1FC
:102D6000240003F085F8054604E003E002E001E0FA
:102D7000012500BF00BF4DB9BE48006820F4604087
:102D8000D4F89C100843BB49086000E0A8462078AE
:102D900000F00800082817D1D4F88000B0F5805F53
:102DA00007D1022104F1240003F062F808B14FF0CA
:102DB0000108B048001F006820F44050D4F880108B
:102DC0000843AC49091F0860207800F01000102863
:102DD00015D1D4F89400B0F5807F07D1022104F119
:102DE000240003F045F808B14FF00108A14800683D
:102DF00020F44070D4F8941008439E49086020687D
:102E000000F40020B0F5002F26D1D4F8A00030B196
:102E1000B0F5803F09D0B0F5003F0ED10CE00021A5
:102E2000201D02F073FF054609E0022104F1240091
:102E300003F01EF8054602E001E0012500BF00BFD7
:102E40004DB98C48006820F44030D4F8A0100843F5
:102E50008849086000E0A846206800F48020B0F5AA
:102E6000802F2DD1D4F88400B0F5801F06D0B0F5A6
:102E7000001F0CD0B0F5401F11D10FE07D482C3859
:102E8000006840F400307B492C39086009E00121DA
:102E900004F1240002F0ECFF054602E001E0012508
:102EA00000BF00BF5DB97348001F006820F44010E8
:102EB000D4F8841008436F49091F086000E0A84651
:102EC000206800F48030B0F5803F24D1E06C18B168
:102ED000B0F5803F0FD108E066482C38006840F418
:102EE000003064492C39086007E00221201D02F0FF
:102EF0000DFF054601E0012500BF00BF55B95D4843
:102F00000C38006820F48030E16C084359490C39D2
:102F1000086000E0A846206800F00050B0F1005FB3
:102F200007D1022104F1240002F0A2FF08B14FF002
:102F30000108206800F40030B0F5003F27D1E06FB1
:102F4000A0B1B0F5807F06D0B0F5007F0CD0B0F511
:102F5000407F0CD109E047482C38006840F400302D
:102F600044492C39086004E003E002E001E0012557
:102F700000BF00BF55B93F48001F006820F44070F3
:102F8000E16F08433B49091F086000E0A84620683C
:102F900000F48010B0F5801F09D136480838006869
:102FA00020F00040216F084332490839086020684A
:102FB00000F08050B0F1805F0AD12E484838006898
:102FC00020F48040D4F8B41008432A4948390860F6
:102FD000206800F40010B0F5001F09D1254808381A
:102FE000006820F08070A16E08432249083908600B
:102FF000206800F08040B0F1804F11D100BF1D4823
:103000004838006820F400401A49483908600846EA
:103010000068D4F8B810084316494839086000BF62
:10302000206800F00040B0F1004F09D111480C3881
:10303000006820F04050216D08430E490C390860AB
:10304000206800F40000B0F5000F0AD10948001F05
:10305000006820F44000D4F8881008430549091F8F
:103060000860B8F1000F02D10020BDE8F081012016
:10307000FBE70000584402582DE9F04104460D4694
:1030800014B90120BDE8F081BD48006800F00F00D0
:10309000A8420ED2BA48006820F00F002843B84971
:1030A00008600846006800F00F00A84201D0012027
:1030B000E8E7207800F0040004280ED1B149206927
:1030C000096801F07001884207D9AE48006820F015
:1030D000700021690843AB490860207800F00800BF
:1030E000082811D1A749091D6069096801F070011C
:1030F000884209D9A348001D006820F0700061696A
:103100000843A049091D0860207800F0100010282D
:1031100011D19C49091DA069096801F4E061884248
:1031200009D99848001D006820F4E060A1690843AF
:103130009449091D0860207800F02000202811D152
:1031400090490831E069096801F07001884209D9A5
:103150008C480830006820F07000E1690843894914
:1031600008310860207800F0020002280ED185495D
:10317000E068096801F00F01884207D981480068BA
:1031800020F00F00E16808437E490860207800F0D5
:103190000100002850D07B48006820F47060A168CE
:1031A0000843784908606068022807D175481838D4
:1031B0000068C0F34040F8B9012063E76068032865
:1031C00007D1704818380068C0F34060A0B90120EA
:1031D00058E76068012807D16A4818380068C0F3CA
:1031E000002048B901204DE7664818380068C0F350
:1031F000800008B9012045E762480838006820F0DF
:103200000700616808435F4908390860FEF744F920
:10321000064608E0FEF740F9801B41F288318842FB
:1032200001D903202EE757480838006800F038001D
:103230006168B0EBC10FEDD1207800F002000228E8
:103240000ED15049E068096801F00F01884207D2A9
:103250004C48006820F00F00E168084349490860C5
:103260004748006800F00F00A8420ED944480068A3
:1032700020F00F002843424908600846006800F02B
:103280000F00A84201D00120FCE6207800F00400E5
:1032900004280ED13B492069096801F07001884279
:1032A00007D23848006820F070002169084335498A
:1032B0000860207800F00800082811D13149091D64
:1032C0006069096801F07001884209D22D48001D2B
:1032D000006820F07000616908432A49091D0860F0
:1032E000207800F01000102811D12649091DA0698E
:1032F000096801F4E061884209D22248001D006893
:1033000020F4E060A16908431E49091D0860207887
:1033100000F02000202811D11A490831E06909681D
:1033200001F07001884209D216480830006820F088
:103330007000E169084313490831086000F09AF809
:1033400010490968C1F303210F4A515C01F01F01C4
:1033500020FA01F70B48006800F00F001146085CE6
:1033600000F01F0027FA00F00849086008480760CD
:1033700008480068FEF7D2F88046404682E6000022
:10338000002000521844025850750108D80F00243C
:10339000D40F0024CC0F00243F220260174A126889
:1033A00002F007024260154A0832126802F47062A5
:1033B0008260124A0832126802F00F02C2600F4A9D
:1033C0000832126802F0700202610C4A0C32126874
:1033D00002F070024261094A0C32126802F4E062A3
:1033E0008261064A1032126802F07002C261044A19
:1033F000126802F00F020A60704700001044025881
:103400000020005210B500F035F80D490968C1F3ED
:1034100003210C4A515C01F01F0120FA01F4084815
:10342000006800F00F001146085C00F01F0024FA4D
:1034300000F005490860054804600846006810BDB2
:103440001844025850750108D80F0024D40F0024E6
:1034500000B5FFF7D7FF05490968C1F30221044A07
:10346000515C01F01F01C84000BD00001C4402581F
:1034700050750108F0B5824E366806F0380636B150
:10348000082E15D0102E15D0182E7DD114E07C4EAC
:10349000103E3668C6F3401646B1794E103E366887
:1034A000C6F3C107774E26FA07F000E07548E5E05D
:1034B0007548E3E07548E1E0714E1836366806F06D
:1034C00003046F4E18363668C6F305116C4E1C3671
:1034D000366806F001056A4E24363668C6F3CC0617
:1034E00016FB05F601EE106AB8EE410A002971D00C
:1034F00024B1012C50D0022C6DD16DE0604E103EF5
:103500003668C6F340163EB35D4E103E3668C6F3CD
:10351000C1075C4E26FA07F301EE103AF8EE411AA5
:1035200001EE101AB8EE411A81EE812A9FED581A69
:10353000C0EE011A524E20363668C6F3080601EE78
:10354000106AB8EE411A31EE811AF7EE001A31EE28
:10355000211A62EE010A1EE001EE101AB8EE411ABD
:10356000DFED4C1A81EE812A9FED491AC0EE011A57
:10357000434E20363668C6F3080601EE106AB8EEF0
:10358000411A31EE811A00E076E0F7EE001A31EED2
:10359000211A62EE010A5BE001EE101AB8EE411A40
:1035A0009FED3D2AC2EE011A9FED391A80EE012AE5
:1035B000334E20363668C6F3080601EE106AB8EEC0
:1035C000411A32EE011AB7EE002A31EE021A61EE0C
:1035D000810A3DE04EE01DE001EE101AB8EE411AFE
:1035E000DFED2E1A81EE812A9FED291AC0EE011A15
:1035F000234E20363668C6F3080601EE106AB8EE90
:10360000411A31EE811AF7EE001A31EE211A62EEFC
:10361000010A1DE001EE101AB8EE411A9FED1E2AB4
:10362000C2EE011A9FED1A1A80EE012A144E2036BE
:103630003668C6F3080601EE106AB8EE411A32EE9B
:10364000011AB7EE002A31EE021A61EE810A00BFBC
:1036500000BF0B4E20363668C6F34626721C01EEBC
:10366000102AB8EE411AC0EE811ABCEEE11A11EE32
:10367000100A00E0002001E0034800BF00BFF0BDD9
:10368000104402580090D00300093D00001BB70011
:10369000000000460024744C0024744A001B374B81
:1036A0002DE9F047044614B90120BDE8F0872078E1
:1036B00000F00100002870D0FA48006800F03808D7
:1036C000F8481830D0F80090B8F1100F06D0B8F1D3
:1036D000180F0FD109F0030002280BD1F148103860
:1036E0000068C0F3404000286AD06068002867D1B5
:1036F0000120DAE700BF6068B0F5803F08D1E948F3
:103700001038006840F48030E649103908602EE037
:10371000606868B9E3481038006820F48030E149F7
:10372000103908600846006820F4802008601EE018
:103730006068B0F5A02F0DD1DA481038006840F469
:103740008020D849103908600846006840F480306D
:1037500008600CE0D3481038006820F48030D1496C
:10376000103908600846006820F48020086000BF17
:10377000606898B1FDF790FE054606E0FDF78CFE07
:10378000401B642801D903208FE7C6481038006821
:10379000C0F340400028F1D012E012E0FDF77CFEBB
:1037A000054606E0FDF778FE401B642801D903209A
:1037B0007BE7BC4810380068C0F340400028F1D1D6
:1037C00000BF207800F00200022874D1B5480068DC
:1037D00000F03808B3481830D0F80090B8F1000F66
:1037E00005D0B8F1180F56D109F00300D0BBAD4891
:1037F00010380068C0F3800018B1E06808B90120F3
:1038000053E7A8481038006820F01900E168084321
:10381000A44910390860FDF73FFE054606E0FDF7B4
:103820003BFE401B022801D903203EE79D4810388B
:103830000068C0F380000028F1D000BFFDF726FE2D
:1038400041F2030188421AD8206940280BD19548DB
:103850000C38006820F47C3040F4003091490C3979
:10386000086017E017E08F480C38006820F47C30BF
:10387000216940EA01308B490C3908600AE0894827
:103880000C38006820F0FE40217C40EA0160854948
:103890000C39086066E0E06888B382481038006838
:1038A00020F01900E16808437E4910390860FDF7EF
:1038B000F3FD054607E056E0FDF7EEFD401B02284C
:1038C00001D90320F1E6774810380068C0F3800082
:1038D0000028F1D000BFFDF7D9FD41F20301884275
:1038E0001AD8206940280BD16E480C38006820F4A3
:1038F0007C3040F400306B490C39086017E017E069
:1039000068480C38006820F47C30216940EA0130B6
:1039100064490C3908600AE062480C38006820F0FD
:10392000FE40217C40EA01605E490C39086019E0E4
:103930005C481038006820F001005A4910390860CE
:10394000FDF7AAFD054606E0FDF7A6FD401B02288F
:1039500001D90320A9E6534810380068C0F380005D
:103960000028F1D100BF207800F0100010287CD191
:103970004C48006800F038084A481830D0F80090E9
:10398000B8F1080F06D0B8F1180F3DD109F00300C7
:10399000012839D1434810380068C0F3002020B115
:1039A000E069802801D001207FE600BFFDF76EFDB1
:1039B00041F2030188421AD8206A20280AD13948E6
:1039C0000C38006820F0F84040F0804035490C3950
:1039D000086018E033480C38006820F0F84094F88C
:1039E000201040EA81602F490C3908600BE02D4817
:1039F000001F006820F07C5094F8201040EA01601D
:103A00002849091F086066E0E06978B32548103846
:103A1000006840F08000234910390860FDF73CFD44
:103A2000054606E0FDF738FD401B022801D90320BA
:103A30003BE61C4810380068C0F300200028F1D095
:103A400000BFFDF723FD41F2030188421CD8206A24
:103A500020280CD113480C38006820F0F84040F0C2
:103A6000804010490C3908601AE035E01CE00D4830
:103A70000C38006820F0F84094F8201040EA81608B
:103A800008490C3908600BE00648001F006820F068
:103A90007C5094F8201040EA01600249091F086038
:103AA00019E0000010440258FA48006820F0800035
:103AB000F8490860FDF7F0FC054606E0FDF7ECFC70
:103AC000401B022801D90320EFE5F2480068C0F34B
:103AD00000200028F2D100BF207800F0080008285C
:103AE00036D16069D0B1EB487430006840F0010015
:103AF000E84974310860FDF7CFFC054606E0FDF7A4
:103B0000CBFC401B022801D90320CEE5E1487430EC
:103B10000068C0F340000028F1D019E0DD4874309F
:103B2000006820F00100DB4974310860FDF7B4FC47
:103B3000054606E0FDF7B0FC401B022801D9032032
:103B4000B3E5D44874300068C0F340000028F1D1D8
:103B5000207800F02000202830D1A069B8B1CD48ED
:103B6000006840F48050CB490860FDF795FC05469D
:103B700006E0FDF791FC401B022801D9032094E5E3
:103B8000C4480068C0F340300028F2D016E0C148B5
:103B9000006820F48050BF490860FDF77DFC0546B1
:103BA00006E0FDF779FC401B022801D903207CE5E3
:103BB000B8480068C0F340300028F2D1207800F007
:103BC000040004287DD1B448006840F48070B249F4
:103BD0000860FDF761FC054606E0FDF75DFC401B53
:103BE000642801D9032060E5AB48006800F48070C8
:103BF0000028F2D000BFA068012808D1A548703085
:103C0000006840F00100A349703108602DE0A06811
:103C100068B9A0487030006820F001009D497031FB
:103C200008600846006820F0040008601DE0A068F5
:103C300005280DD197487030006840F00400954980
:103C4000703108600846006840F0010008600CE030
:103C500090487030006820F001008E497031086093
:103C60000846006820F00400086000BFA068A0B10A
:103C7000FDF712FC054608E0FDF70EFC401B41F283
:103C80008831884201D903200FE5824870300068EE
:103C9000C0F340000028EFD013E0FDF7FDFB054620
:103CA00008E0FDF7F9FB401B41F28831884201D959
:103CB0000320FAE4774870300068C0F34000002821
:103CC000EFD1606A00287DD072481030006800F0A3
:103CD0003800182877D0606A022875D16D480068CE
:103CE00020F080706B490860FDF7D6FB054606E0C2
:103CF000FDF7D2FB401B022801D90320D5E465481B
:103D00000068C0F340600028F2D100BFD4E90A1077
:103D100041EA00105F492831096840F2F3329143CB
:103D200008435C4928310860208E401EC0F308001B
:103D3000616B491E4FF47E4202EA41210843218F04
:103D4000491ED20102EA014108433C21095D491E96
:103D5000120202EA016108434E493031086000BF97
:103D6000081F006820F00100091F0860494834302E
:103D700000684FF6F8718843A16C40EAC1004549DC
:103D80003431086043482C30006820F00C00216C6E
:103D9000084340492C3108600846006820F00200C2
:103DA000616C08433B492C3108600846006840F4C8
:103DB000803008600846006840F40030086008461B
:103DC000006802E06AE038E01FE040F4802008600C
:103DD0000846006840F0010008602E48006840F086
:103DE00080702C490860FDF757FB054606E0FDF79B
:103DF00053FB401B022801D9032056E425480068E4
:103E0000C0F340600028F2D048E02248006820F06B
:103E1000807020490860FDF73FFB054606E0FDF78E
:103E20003BFB401B022801D903203EE419480068EF
:103E3000C0F340600028F2D130E01648283007680F
:103E4000144830300668606A012821D007F0030169
:103E5000A06A81421CD1C7F30511E06A884217D1DC
:103E6000C6F30801206B401E814211D1606B401ED9
:103E7000C6F3462188420BD1A06B401EC6F3064113
:103E8000884205D1E06B401EC6F30661884205D02A
:103E900001200AE40044025800480258002004E4CB
:103EA00070477047704770472DE9F04188B004466D
:103EB0000F460025A846032084F83000A06B032895
:103EC00020D0B7F5004F04D1606B40F080506063A4
:103ED0001CE0B7F5804F07D1204603F067F806468F
:103EE000606B3043606311E03FB9204603F02AF86D
:103EF0000646606B3043606308E0606B40F0006032
:103F0000606303E0606B40F080506063606B28B1D9
:103F10004248216888634FF0010868E04FF4803020
:103F2000FDF74EFF0546002D5BD060680390A0684A
:103F300004900597206906903948B5FBF0F1606957
:103F4000814202D86069079041E0A06DB0F5007F22
:103F500002D1606907903AE0A06DB0F5807F1BD177
:103F6000606950B92E48854204D94000B5FBF0F095
:103F700007902CE06069079029E060694000B5FB7C
:103F8000F0F02749884204D94800B5FBF0F00790CB
:103F90001DE0606907901AE0606950B921488542C8
:103FA00004D94000B5FBF0F0079010E0606907907D
:103FB0000DE060694000B5FBF0F01A49884204D971
:103FC0004800B5FBF0F0079001E060690790DDE97B
:103FD0000601CDE90001206803A90EC902F0E8FC42
:103FE00005E0606B40F0006060634FF001084FF443
:103FF0000071206802F0F5F806463EB107482168D6
:104000008863606B304360634FF00108012084F8DF
:104010003000404608B0BDE8F0810000FF0FE01F0F
:1040200080F0FA0240787D017047000010B502462A
:10403000D06D800F0870D06DC0F383604870D06D74
:10404000C0F301608870D06D000CC870B2F85C00DD
:10405000000A087192F85C004871106E000DC8806B
:10406000106EC0F3034008726020805AC0F3C03065
:1040700048726020805AC0F3803088726020805A75
:10408000C0F34030C8726020805AC0F3003008731B
:1040900000204873906B002836D16020805A80053C
:1040A000030D506E43EA90700861506EC0F3C26019
:1040B0000875506EC0F302604875506EC0F34250F0
:1040C0008875506EC0F38240C875506EC0F3C23020
:1040D00008760869401C90640B7E906C03F007031F
:1040E0009B1C01249C4060439064087A00F00F03FD
:1040F00001209840D064D2E912035B0A584310654E
:104100004FF40073536521E0906B012813D16020B8
:10411000805C8006830A506E43EA1040086108699B
:10412000401C83029364936C13654FF40073D36453
:10413000D36C53650AE02E4813689863506B40F0C7
:1041400080505063012082F8300010BD6420805AF6
:10415000C0F3803001F8190F6420805AC0F3C610F4
:1041600048706420805C00F07F008870906EC00F03
:10417000C870906EC0F341700871906EC0F3826099
:104180004871906EC0F383508871906EC0F34050B8
:10419000C87100200872906EC0F300404872682019
:1041A000805AC0F3C03088726820805AC0F38030D3
:1041B000C8726820805AC0F3403008736820805A63
:1041C000C0F3003048736820805AC0F381208873A0
:1041D0006820805AC0F30120C8736820805CC0F357
:1041E000460008740120487419390020ADE700002A
:1041F000FF0FE01F0246906B0860D06B4860106CA8
:104200008860506CC860906C0861D06C4861106D1B
:104210008861506DC86100207047F8B504460020E1
:1042200000906946204602F075FE054615B1606BA8
:10423000284360630098C0F343263046F8BD000071
:10424000F0B591B005460C46002795F830000328DC
:1042500002D1012011B0F0BD01A9284602F0C0FD35
:10426000064656B12F4829688863686B30436863F7
:10427000012085F83000012743E00198C0F3811048
:1042800020700198C0F340106070019800F47F0026
:10429000000A019940EA11606080029800060299C4
:1042A00001F47F4140EA0120029901F47F0140EAD4
:1042B0001120029940EA116060600398207203980F
:1042C000000A60720398C0F30350A0720498C0B251
:1042D000039901F07F4140EA1140A0810498C0F3A6
:1042E0008520A0730498C0F30120E0730498C0F304
:1042F00003102074049800F00F0060740598000EFD
:10430000A0744FF40071286801F06BFF06463EB1BF
:104310000448296888636E63012085F8300001270E
:10432000384697E7FF0FE01F70B50446E56A20683E
:10433000406BC0F3C03030B105F0080018B1204622
:1043400002F02CFD26E12068406BC0F3002000281D
:1043500076D04FF48070216888632068C06B4CF27F
:104360003A1188432168C8632068C06B20F08050F0
:104370002168C8632068C06820F040002168C860D8
:1043800005F0080030B305F0020010B905F0200078
:1043900050B1206802F08EF806462EB1606B3043B3
:1043A00060632046FFF740FE7B4821688863012058
:1043B00084F830000020E06205F0010010B905F03B
:1043C000020018B1204600F0A3FAE3E0204600F016
:1043D000A4FADFE005F080000028B3D000202168B7
:1043E00088622168C8622168086505F0020010B97A
:1043F00005F0200050B1206802F05CF806462EB1AE
:10440000606B304360632046FFF70EFE012084F8A6
:1044100030000020E06205F0100010B905F0200027
:1044200010B1204600F079FA05F0010018B905F046
:104430000200002886D0204600F06AFAAAE0FFE7D2
:104440002068406BC0F3803030B105F0080018B12F
:10445000204602F0DFFD9DE02068406B00F03A004E
:1044600008B1012000E00020002870D02068406BD7
:10447000C0F3400018B1606B40F002006063206838
:10448000406BC0F3C00018B1606B40F0080060637F
:104490002068406BC0F3401018B1606B40F0200002
:1044A00060632068406BC0F3001018B1606B40F08F
:1044B000100060633848216888632068C06B20F46E
:1044C0009D702168C8632068C06820F040002168A2
:1044D000C8602068C06A40F400502168C862206843
:1044E000C06840F080002168C860206801F0E2FFE9
:1044F000616B084360632068C06820F08000216819
:10450000C8604FF400602168886305F0080040B17E
:10451000012084F830000020E0622046FFF784FD8F
:1045200038E005F0800030B3606B20B32068C06BCA
:1045300020F080502168C8630020216808650120B0
:1045400084F830002046FFF76FFD23E0FFE7206886
:10455000406BC0F3007070B14FF0805021688863E9
:104560002068006D00F0040050B905F0200018B17B
:104570002046FFF798FC0DE02046FFF792FC09E08B
:1045800005F0200018B12046FFF78CFC02E0204621
:10459000FFF786FC70BD00003A0F0018F0B585B03B
:1045A000044614B9012005B0F0BD94F8300020B9DC
:1045B00000202076204600F0B1F8042084F8300076
:1045C000204600F045F808B10120ECE76946204696
:1045D000FFF736FE08B10120E5E79DF810609DF871
:1045E0001170A06B012805D106B91FB14FF40071FD
:1045F000A16507E0A06B012802D10102A16501E0DD
:104600000021A1652046E168FFF74EFC08B10120BA
:10461000C9E7FCF741FF05460CE0FCF73DFF401BF6
:10462000401C38B94FF000406063012084F830002E
:104630000320B8E72046FFF7F0FD0428EDD1002065
:104640006063E062012084F830000020ABE70000E6
:10465000F0B587B004460026002002900390049035
:1046600005904FF48030FDF7ABFB06463EB90120C4
:1046700084F83000C0066063012007B0F0BD244814
:10468000B6FBF0F00690DDE90501CDE900012068F8
:1046900002A90EC902F08CF9206802F0A3F906986D
:1046A0004000B6FBF0F61B48B0FBF6F0471C38465E
:1046B000FCF7CCFD204602F00BFB05463DB1012086
:1046C00084F83000606B284360630120D5E7204602
:1046D00002F078FA05463DB1012084F83000606BA5
:1046E000284360630120C8E74FF40071206801F09F
:1046F00078FD05464DB1084821688863606B284302
:104700006063012084F83000B7E70020B5E70000BF
:1047100000350C0010210100FF0FE01F10B5B6B0EE
:104720000446142131A8FBF795FFBC2102A8FBF732
:1047300091FF38492068884269D14FF48030029057
:104740000020159002A8FDF7E5FE08B1FCF7C2FBBA
:1047500000BF3148006840F480302F4908600846A7
:10476000006800F48030019000BF00BF00BF2A48FD
:104770000C30006840F0040027490C3108600846FE
:10478000006800F00400019000BF00BF00BF0846B1
:10479000006840F0080008600846006800F0080063
:1047A000019000BF00BF4FF4706031900220329042
:1047B00001203390032034900C20359031A9174804
:1047C000FCF758FD4FF480503190022032900020C9
:1047D0003390032034900C20359031A90F48FCF71A
:1047E00049FD0420319002203290012033900320B3
:1047F00034900C20359031A90948FCF73BFD00228C
:1048000005213120FCF700FF3120FCF7E9FE36B02E
:1048100010BD000000700052D44402580008025835
:10482000000C02582DE9F04387B004460F4691462C
:104830001D46C8463FB9606B40F0006060630120D0
:1048400007B0BDE8F08394F8300001285CD1002067
:10485000606308EB0501206D814205D9606B40F073
:10486000007060630120EBE7032084F83000002033
:104870002168C86267626802A062A06B012801D04B
:104880004FEA48284FF0FF300190680202909020D4
:1048900003900220049000200590069001A9206852
:1048A00001F070FE2068C06840F040002168C860D8
:1048B00020688765012021680865012D07D98220BD
:1048C000E0624146206801F0F5FC064606E08120E2
:1048D000E0624146206801F00AFD064666B10B48D9
:1048E00021688863606B30436063012084F8300086
:1048F0000020E0620120A3E72068C06B40F49570BF
:104900002168C86300209BE7022099E7FF0FE01FA2
:1049100010B50446FBF74AFF10BD10B50446FBF77F
:1049200063FF10BD2DE9F04387B004460F46914662
:104930001D46C8463FB9606B40F0006060630120CF
:1049400007B0BDE8F08394F8300001285BD1002067
:10495000606308EB0501206D814205D9606B40F072
:10496000007060630120EBE7032084F83000002032
:104970002168C862E76168022062A06B012801D04B
:104980004FEA48284FF0FF300190680202909020D3
:104990000390002004900590069001A9206801F082
:1049A000F1FD2068C06840F040002168C8602068C0
:1049B0008765012021680865012D07D9A020E062E4
:1049C0004146206801F0A4FD064606E09020E06222
:1049D0004146206801F0B9FD064666B10B482168E2
:1049E0008863606B30436063012084F830000020EE
:1049F000E0620120A4E72068C06B40F48D7021685C
:104A0000C86300209CE702209AE70000FF0FE01F28
:104A100070B504460CB9012070BD606A00B900BFD2
:104A20000021A1625749206888420CD0564920686D
:104A3000884208D055492068884204D0E0680F2891
:104A400001D90120E8E7204602F0A5FE05464D49C0
:104A50002068884209D04C492068884205D04B49DB
:104A60002068884201D0082D0DD846492068884228
:104A700007D045492068884203D0444920688842CD
:104A800003D1102D01D90120C6E794F8810028B97F
:104A9000002084F88000204600F07AF8022084F894
:104AA00081002068006820F001002168086020680B
:104AB000806800F4F816A069B0F1806F11D16068C9
:104AC000B0F5800F01D1A06B28B1606848B9A06B28
:104AD000B0F1805F05D12068006840F48050216803
:104AE0000860A16AE06908433043E16B0843E1686C
:104AF000084321688860616A606B0843A16B0843C2
:104B0000A16908432169084361690843216A084390
:104B100061680843E16C0843A1680843A16C08433D
:104B2000A16D08432168C860606878B92068806812
:104B300020F4C05040F400602168886020688068DC
:104B400020F4C06040F48060216888602068006DB7
:104B500020F0010021680865606800F48000B0F56D
:104B6000800F07D12068C06820F00040616D0843C5
:104B70002168C8600020C4F88400012084F8810006
:104B8000002049E70030014000380040003C004070
:104B900010B5B6B00446142131A8FBF75BFDBC216B
:104BA00002A8FBF757FD25492068884244D14014EC
:104BB0000290202003906421049105210591042195
:104BC00006910221079140210891002109910A9143
:104BD000C0021A9002A8FDF79DFC08B1FCF77AF913
:104BE00000BF1748006840F40050154908600846A7
:104BF000006800F40050019000BF00BF00BF1048E3
:104C00001038006840F010000D491039086008465F
:104C1000006800F01000019000BF00BF64203190D8
:104C200002203290002033900220349005203590ED
:104C300031A90448FCF71EFB36B010BD003401401A
:104C4000F0440258001002582DE9F84F04468846F7
:104C500017461D46206800F120094FF0000A00BFEA
:104C600094F88000012802D10220BDE8F88F0120CD
:104C700084F8800000BFFCF70FFC064694F8810022
:104C8000012808D04FF0020A00BF002084F88000FD
:104C900000BF5046E9E7B8F1000F00D047B94FF028
:104CA000010A00BF002084F8800000BF5046DCE706
:104CB00003205C3484F825000020A062C4F8008042
:104CC000A780E780A060A081E081A06160615C3C7A
:104CD000A068B0F5C02F05D12068006840F40060DE
:104CE00021680860206840686FF30F00384321682E
:104CF00048602068006840F0010021680860606832
:104D0000B0F5800F05D12068006840F4007021687C
:104D10000860E0680F2833D92DE02068406900F072
:104D2000020002280CD1E06D006821680862E06D85
:104D3000001DE065B4F86200401EA4F862001AE0AD
:104D4000FCF7AAFB801BA84201D3681C00B995B9E7
:104D5000204602F0B5FC00BF002084F8800000BFB0
:104D6000D4F8840040F48070C4F88400012084F8F2
:104D70008100032079E7B4F862000028CDD1A4E0D7
:104D8000E068072846D940E02068406900F002004A
:104D900002281FD1B4F8620001280ED9E06B60B17F
:104DA000E06D006821680862E06D001DE065B4F800
:104DB0006200801EA4F8620027E0E06D0088A9F878
:104DC0000000E06D801CE065B4F86200401EA4F8AD
:104DD00062001AE0FCF760FB801BA84201D3681C4C
:104DE00000B995B9204602F06BFC00BF002084F8A2
:104DF000800000BFD4F8840040F48070C4F88400C0
:104E0000012084F8810003202FE7B4F86200002815
:104E1000BAD15AE055E02068406900F0020002284B
:104E200034D1B4F8620003280FD9E06B40280CD9C4
:104E3000E06D006821680862E06D001DE065B4F86F
:104E40006200001FA4F862003BE0B4F86200012891
:104E50000ED9E06B60B1E06D0088A9F80000E06D4C
:104E6000801CE065B4F86200801EA4F8620028E0AF
:104E7000E06D0078216881F82000E06D401CE0655D
:104E8000B4F86200401EA4F862001AE0FCF704FBCC
:104E9000801BA84201D3681C00B995B9204602F0D6
:104EA0000FFC00BF002084F8800000BFD4F884000D
:104EB00040F48070C4F88400012084F8810003204D
:104EC000D3E6B4F862000028A5D1334600220821B9
:104ED0002046009502F06CFC28B1D4F8840040F024
:104EE0002000C4F88400204602F0EAFB00BF002046
:104EF00084F8800000BF012084F88100D4F8840089
:104F000008B10120B1E65046AFE62DE9FF4F85B06C
:104F100004468A461F46129E0020049020682030D6
:104F2000039020683030029000BF94F88000012880
:104F300003D1022009B0BDE8F08F012084F8800081
:104F400000BFFCF7A9FA81463D46A84694F881B017
:104F500060680190BBF1010F11D00198B0F5800F8E
:104F600004D1A06810B9BBF1040F08D0022004904E
:104F700000BF002084F8800000BF0498DAE7BAF18F
:104F8000000F02D0079800B147B90120049000BF7C
:104F9000002084F8800000BF0498CBE794F88100DB
:104FA000042802D0052084F881000020C4F8840081
:104FB00007986066A4F86A70A4F86870C4F85CA0EA
:104FC000A4F86270A4F86070002020676067206811
:104FD00040686FF30F00384321684860206800681C
:104FE00040F00100216808606068B0F5800F05D1CD
:104FF0002068006840F4007021680860E0680F28AD
:105000004ED947E02068406900F0020002280ED126
:105010006DB1E06D006821680862E06D001DE0651B
:10502000B4F86200401EA4F86200B4F86250206830
:10503000406948F20801084080B1B8F1000F0DD076
:105040002068006B616E0860606E001D6066B4F8D9
:105050006A00401EA4F86A00B4F86A80FCF71CFAE3
:10506000A0EB0900B04201D3701C00B996B92046EC
:1050700002F026FB00BF002084F8800000BFD4F8B7
:10508000840040F48070C4F88400012084F881001A
:1050900003204FE7002DB5D1B8F1000FB2D117E1D1
:1050A000E068072874D96CE02068406900F00200CD
:1050B000022820D1FDB1012D10D9E06B70B1E06D57
:1050C000006821680862E06D001DE065B4F86200C8
:1050D000801EA4F86200B4F862500CE054F85C0F33
:1050E0000188039801802068801C2060E088401EB1
:1050F000E080E5885C3C2068406900F4604020B3B3
:10510000B8F1000F21D02068406900F4004070B170
:105110002068006B616E0860606E001D6066B4F808
:105120006A00801EA4F86A00B4F86A800DE0029854
:10513000008854F8641F08802068801C2060E08884
:10514000401EE080B4F80680643CFCF7A5F9A0EBB3
:105150000900B04201D3701C00B996B9204602F094
:10516000AFFA00BF002084F8800000BFD4F88400AC
:1051700040F48070C4F88400012084F8810003208A
:10518000D8E6002D90D1B8F1000F8DD1A0E0FFE757
:1051900098E02068406900F00200022835D125B36C
:1051A000032D11D9E06B40280ED9E06D006821680D
:1051B0000862E06D001DE065B4F86200001FA4F80D
:1051C0006200B4F8625020E0012D0FD9E06B68B1A5
:1051D00054F85C0F0188039801802068801C2060CF
:1051E000E088801EE080E5885C3C0EE0E06D0078A1
:1051F000216881F82000E06D401CE065B4F8620091
:10520000401EA4F86200B4F862502068406900F4BF
:10521000604058B3B8F1000F38D02068406900F4FE
:10522000004070B12068006B616E0860606E001D08
:105230006066B4F86A00001FA4F86A00B4F86A80D7
:1052400024E02068406900F4C040B0F5005F0ED94A
:105250000298008854F8641F08802068801C206031
:10526000E088801EE080B4F80680643C0EE0206890
:1052700090F83000616E0870606E401C6066B4F893
:105280006A00401EA4F86A00B4F86A80FCF704F9CA
:10529000A0EB0900B04201D3701C00B996B92046BA
:1052A00002F00EFA00BF002084F8800000BFD4F89E
:1052B000840040F48070C4F88400012084F88100E8
:1052C000032037E6002D7FF464AFB8F1000FFAD168
:1052D0004B46002208212046009602F069FA28B1C8
:1052E000D4F8840040F02000C4F88400204602F086
:1052F000E7F900BF002084F8800000BF012084F897
:105300008100D4F8840008B1012013E6049811E666
:1053100070477047704710B504460CB9012010BDA6
:1053200094F83D0028B9002084F83C00204600F0A5
:1053300029F8022084F83D00211D206804F07EF940
:10534000012084F8480000BF84F83E0001213F207E
:10535000015540200155412001554220015543206F
:10536000015500BF00BF012084F8440045200155CD
:10537000462001554720015500BF012084F83D001B
:105380000020CCE770470000014691F83D0001285D
:1053900001D001207047022081F83D000868C068F4
:1053A00040F001000B68D8601C4B086898421BD085
:1053B0000868B0F1804F17D0194B0868984213D095
:1053C000184B086898420FD0174B086898420BD0CA
:1053D000164B0868984207D0154B0868984203D0CE
:1053E000144B0868984210D108688068124B00EA94
:1053F0000302062A0FD0B2F5803F0CD0086800687F
:1054000040F001000B68186005E00868006840F093
:1054100001000B6818600020BCE70000000001409C
:105420000004004000080040000C0040000401405F
:10543000001800400040014007000100704710B50F
:10544000044620680069C0F34000D8B12068C068F5
:10545000C0F34000B0B16FF0020021680861012084
:1054600020772068806900F0030018B12046FFF71C
:10547000E5FF05E0204600F0BEF8204600F0BCF84D
:105480000020207720680069C0F38000D8B1206830
:10549000C068C0F38000B0B16FF0040021680861FB
:1054A000022020772068806900F4407018B12046FF
:1054B000FFF7C4FF05E0204600F09DF8204600F00D
:1054C0009BF80020207720680069C0F3C000D8B1A5
:1054D0002068C068C0F3C000B0B16FF00800216858
:1054E0000861042020772068C06900F0030018B12B
:1054F0002046FFF7A3FF05E0204600F07CF8204699
:1055000000F07AF80020207720680069C0F30010CE
:10551000D8B12068C068C0F30010B0B16FF01000BF
:1055200021680861082020772068C06900F4407075
:1055300018B12046FFF782FF05E0204600F05BF837
:10554000204600F059F8002020772068006900F01C
:10555000010058B12068C06800F0010030B16FF060
:10556000010021680861204600F048F820680069C1
:10557000C0F3C01058B12068C068C0F3C01030B18B
:105580006FF08000216808612046FFF7C2FE2068A6
:105590000069C0F3002058B12068C068C0F3C01093
:1055A00030B16FF48070216808612046FFF7B0FECB
:1055B00020680069C0F3801058B12068C068C0F34B
:1055C000801030B16FF0400021680861204600F083
:1055D00021F820680069C0F3401058B12068C06805
:1055E000C0F3401030B16FF0200021680861204600
:1055F000FFF790FE10BD70477047000010B50446DD
:1056000003492068884201D1FBF74CFF10BD000020
:1056100000000140704700BFFEE700002DE9F041A7
:1056200004460D4616461F46DDF81880012210215B
:105630002348FBF725FF012220212148FBF720FF0B
:10564000002202211F48FBF71BFF052006F095FFF3
:10565000012202211B48FBF713FF022006F08DFFF9
:1056600000E000BF01211748FBF702FF0028F8D037
:105670004FF47841032004F049F80A2006F07DFF3A
:1056800044F61201002004F041F8012006F075FFF5
:10569000280340EA062040EA071040EA080081B2E9
:1056A000022004F033F8012006F067FF224621466D
:1056B0000B2004F0B7F8012006F05FFFBDE8F08191
:1056C0000008025800040258F0B504460D46E06890
:1056D00000F10C06D4E9031088421CD32069B042C3
:1056E00019D21F2003F094FD002003F085FDD4E9BA
:1056F0000371CF1B04F1320101EB0723D4E90371DD
:10570000C91B01EBC1014FF6FF7707EA41021221E5
:10571000A06803F0A1FD2561E068A8421AD8B5424F
:1057200018D24FF6FF7003F073FD1F2003F064FDE5
:10573000E1686F1A04F1320101EB0723E168691A8D
:1057400001EBC1014FF6FF7707EA41021221A06881
:1057500003F082FDF0BD0000FEB506460F460821AD
:105760003848FBF785FE08B10020FEBD002202216B
:105770003448FBF785FE002400254FF47A7301229C
:1057800031493248FFF760FA002002904FF47A70F6
:10579000022302AA2E4900902C48FFF7B6FB4FF4D3
:1057A0007A7301222B492948FFF74EFA0020019015
:1057B0004FF47A70022301AA254900902348FFF78D
:1057C000A4FB9DF809009DF8081040EA01249DF80B
:1057D00005009DF8041040EA012501220221194824
:1057E000FBF74EFE48F29850844200D204464FF632
:1057F0000C00844200D9044648F29850854201D2F8
:1058000048F610354FF66420854200D90546A4F5C8
:1058100005409838C0EB0010000147F27421B0FB3E
:10582000F1F03080A5F50B40103800EB80008001CE
:1058300046F65471B0FBF1F0C0F5A070388001203D
:1058400093E7000000100258E91B0108D81000245B
:10585000EA1B0108E81B010810B503490348FBF7E0
:105860003CFB0349087010BD4D1000246075010811
:105870004C10002400B587B0142102A8FAF7EAFE04
:1058800000BF6348006840F01000614908600846A6
:10589000006800F01000019000BF00BF00BF084684
:1058A000006840F0040008600846006800F004004A
:1058B000019000BF00BF00BF0846006840F08000B4
:1058C00008600846006800F08000019000BF00BF3B
:1058D00000BF0846006840F0020008600846006803
:1058E00000F00200019000BF00BF00BF0846006842
:1058F00040F0010008600846006800F001000190D7
:1059000000BF00BF00BF0846006840F00800086004
:105910000846006800F00800019000BF00BF0122A7
:1059200012213C48FBF7ACFD012242F230013A481B
:10593000FBF7A6FD002209213748FBF7A1FD012254
:1059400002213648FBF79CFD0820029000200390BE
:10595000049002A92F48FBF78DFC10200290012033
:10596000039000200490059002A92A48FBF782FCCE
:105970004FF4005002900120039000200490059005
:1059800002A92548FBF776FC3920029001200390FC
:10599000002004900220059002A91F48FBF76AFC32
:1059A0000120029000200390049002A91B48FBF7FD
:1059B00061FC02200290012003900020049001204D
:1059C000059002A91548FBF755FC04200290002021
:1059D00003900120049002A91048FBF74BFC4FF400
:1059E000C0700290002003900120049002A9094891
:1059F000FBF740FC0220029001200390002004905D
:105A00000220059002A90348FBF734FC07B000BD53
:105A1000E0440258001002580008025800040258DE
:105A20000748084908600020486000210548816057
:105A30004FF48041C160002101610A21416170473A
:105A4000007000525C10002410B51648164908601A
:105A50004FF4800048600021134881600721C16035
:105A60000021016141614FF0806181614FF0A041EF
:105A7000C1610021016241628162C1624FF08041D7
:105A8000416300218163C163016441648164C16435
:105A9000016541658165FEF7BBFF08B1FBF71AFAA6
:105AA00010BD000000340140D810002400BFFEE704
:105AB00000BFFEE72DE9F04F91B004460D461646B3
:105AC0009846DDE91A7920228F4909A8FAF790FD56
:105AD00020228D49203101A8FAF78AFD0C21606847
